:0200000490006A
:10000000909D0320B902009071610090CD54009042
:100010006D610090C5140090B16D0090000000006B
:10002000000000000000000000000000F50100904A
:100030001B160090000000005102009043640090E5
:10004000B56D0090D3020090D3020090D3020090CF
:10005000D3020090D3020090D3020090411600908A
:10006000D3020090D30200904B160090E114009050
:10007000D3020090D3020090D3020090D3020090EC
:10008000D3020090F1140090D3020090D3020090AC
:10009000D3020090D3020090D30200905516009036
:1000A000D3020090D3020090D3020090D3020090BC
:1000B000D3020090D3020090D3020090D3020090AC
:1000C000D3020090D3020090D3020090D30200909C
:1000D000D3020090716D0090816D0090916D009041
:1000E0001D160090D3020090D3020090D30200901E
:1000F000D3020090D3020090D3020090D30200906C
:10010000D3020090D3020090BD650090D30200900E
:10011000B5660090C5660090CD650090D302009052
:1001200001150090D3020090D3020090D3020090FA
:10013000D30200900000000000000000000000005A
:10014000000000000000000000000000D30200904A
:10015000D3020090D3020090D3020090A16D0090D2
:10016000D3020090D3020090D3020090D3020090FB
:10017000D3020090D302009000000000D302009050
:10018000D3020090D3020090D5660090E5660090FF
:10019000D3020090D302009000000000D302009030
:1001A000000000000000000000000000D3020090EA
:1001B000D3020090D3020090000000000000000075
:1001C000000000000000000000000000000000002F
:1001D000000000000000000000000000D3020090BA
:1001E000DFF80CD000F0E2FD0048004791C100901C
:1001F000909D03202D4B19680868B0E8F04F80F3FC
:100200000988BFF36F8F4FF0000080F311887047AB
:100210000000000008480068006880F308884FF07C
:10022000000080F3148862B661B6BFF34F8FBFF34E
:100230006F8F00DF00BF00BF08ED00E0DFF80C00AB
:10024000016841F470010160704700BF88ED00E073
:10025000EFF30980BFF36F8F144B1A681EF0100F75
:1002600008BF20ED108A20E9F04F106009B44FF06C
:10027000500072B680F31188BFF34F8FBFF36F8FBA
:1002800062B610F0E3F84FF0000080F3118809BC6B
:1002900019680868B0E8F04F1EF0100F08BFB0EC06
:1002A000108A80F30988BFF36F8F70471400002015
:1002B000EFF3058070470000064880470648004776
:1002C000FEE7FEE7FEE7FEE7FEE7FEE7FEE7FEE706
:1002D000FEE7FEE759650090E10100902DE9F05F2F
:1002E0000546002092469B468846064681464024A5
:1002F0001BE0284641464746224600F0C3FB5346D2
:100300005A46C01A914110D311461846224600F0B1
:1003100016F82D1A67EB01084F46224601200021EE
:1003200000F00DF817EB00094E41201EA4F1010466
:10033000DFDC484631462A464346BDE8F09F202A86
:1003400004DB203A00FA02F1002070479140C2F12C
:10035000200320FA03F3194390407047A0F14101B4
:10036000192900D82030704738B5D0E90221491E3C
:1003700001EB410102EBC1014268C1EB011102EB4B
:1003800081010268C1EB011102EB8102D0E9043165
:1003900001EB410103EB81013023A1F5527191FB87
:1003A000F3F4174D6C4302EBC41291FBF3F403FB1F
:1003B000141100921A2902DB124B1A4400920C22EB
:1003C00091FBF2F3104C6343009C04EBC3130093C6
:1003D00091FBF2F302FB13110C4A08E0491E40F2B4
:1003E000A324535C6343009C04EBC31300930029D4
:1003F000F4DC0146684600F06DFB009838BD000053
:100400003F0C0F008051010067C20300642301907C
:1004100010B5431A934209D28318881803E010F8E4
:10042000011D03F8011D521EF9D210BD40EA01035F
:100430009B0703D009E008C9121F08C0042AFAD29A
:1004400003E011F8013B00F8013B521EF9D210BD48
:10045000D2B201E000F8012B491EFBD27047002206
:10046000F6E710B513460A4604461946FFF7F0FFB3
:10047000204610BD30B505462A460B4612F8010B42
:1004800013F8014B08B1A042F8D01CB1002802D0EB
:100490006D1CF1E7284630BD421C10F8011B0029F5
:1004A000FBD1801A704730B504460020034600E0B7
:1004B0005B1C934203D2E05CCD5C401BF8D030BDA6
:1004C000034611F8012B00F8012B002AF9D1184638
:1004D000704730B505460020034600E05B1C9342A0
:1004E00005D2EC5CC85C201A01D1002CF6D130BDDD
:1004F0002DE9F0410E460546002400E0641C285D0D
:10050000FFF72CFF0746305DFFF728FF381A02D1AE
:10051000295D0029F2D1BDE8F08100000FB400B5DB
:100520008DB010A909900B9000914FF0FF300A9008
:1005300000200C9005480690054807906A4609A8D7
:100540000F9900F021FB0DB05DF814FBA50B009096
:10055000C30B00902DE9FF5F1D464FF0FF3BD5E92F
:10056000014691465F464FF00008A9697F1C01983B
:100570008847296A824688470028F6D1BAF1FF3FAA
:100580000CD024F4C064002E19DD600614D5BAF135
:100590002B0F09D0BAF12D0F0ED103E0584604B04D
:1005A000BDE8F09F44F48064A9697F1C01988847E6
:1005B000761E8246002E02DDBAF1300F03D0B9F16B
:1005C000000F26D032E0A969761E44F400747F1C27
:1005D000019888478246002E05DDBAF1780F06D0D3
:1005E000BAF1580F03D0B9F1000F10D01EE0B9F1E5
:1005F000000F02D0B9F1100F18D1A969761E24F4AA
:1006000000747F1C019888478246102002E0082071
:1006100000E00A20814609E008FB0908A969761E66
:1006200044F400747F1C019888478246002E05DD43
:100630004946504600F094FA0028EDDAE96901983D
:100640008847A00502D46FF00100A8E7E00725D194
:10065000600613D5600502D5C8F1000000E04046F1
:1006600029680A1D2A600968220501D5087015E06D
:10067000220701D5088011E008600FE02868011DFD
:1006800029600068210502D580F8008006E0210776
:1006900002D5A0F8008001E0C0F8008038467EE76F
:1006A00070B5064606F0F4FB046805460A220021F0
:1006B000304600F097FA2C6070BD2DE9FE4F804661
:1006C00081EA0300C00F0C46009021F0004123F0A6
:1006D0000045B8EB0200A94105D2404621469046AC
:1006E0001C460B46024623F00040104347D0270D1E
:1006F000C7F30A00C3F30A510290401A0190402840
:100700006BDAC3F3130040F4801B0098924620B1CB
:100710000023D2EB030A63EB0B0B01985946C0F19F
:1007200040025046FFF70BFE06460D46504659461E
:10073000019A00F0B7F910EB08006141002487EA44
:10074000115284EAE7731A4340D0009A62B3019AC7
:10075000012A4FEA075215DC001B61EB02014FF042
:10076000004202EA0752CDE90042001C41F5801127
:1007700032462B4600F0B4FA03B0BDE8F08F404695
:100780002146F9E7001B61EB0201001C41F58013D3
:1007900000185B412018A2F5001747EB030140EA5F
:1007A000D570B6196D4111E06D084FEA360645EA7D
:1007B000C0754FEA0752001B61EB0201001C41F5B6
:1007C000801149084FEA30000019514132462B464A
:1007D00003B0BDE8F04F00F074BA00980122400069
:1007E0000023D0EB020263EBE073009821464FEA4E
:1007F000E074B8EB000061EB0401E9E783F000432B
:100800005BE781F0004158E72DE9FE4F81EA0304E0
:1008100004F0004421F0004100944FF0000B23F05D
:10082000004350EA01045ED052EA03045BD0C3F3F4
:100830000A54C1F30A552C44A4F2F3340194A0FBEA
:100840000254C1F3130141F48011C3F3130343F4C1
:10085000801301FB024400FB034E840A970A44EA1A
:10086000815447EA8357A4FB076802958D0A05FB6C
:1008700007854FEA932C04FB0C542705029D4FEA91
:10088000065847EA1637B5EB08056EEB070C870EDE
:10089000920E47EA811742EA8312A7FB0201B6EBE8
:1008A0000B0164EB00042B0D43EA0C335E1844EBA0
:1008B0001C50DA465146E7FB0201C5F313044FEA28
:1008C0000B3343EA14534FEA0432019C43EA060314
:1008D000A4F10C040294009CCDE900B400F000FAED
:1008E00003B0BDE8F08F00200146F9E72DE9F04D97
:1008F00081EA030404F0004B21F0004514464FF058
:10090000000A23F0004150EA050220D054EA010217
:100910001DD0C5F30A570246C5F31303C1F31300F4
:10092000C1F30A5640F4801543F48013A7EB060880
:10093000101BD64608F2FD3873EB050002D308F110
:10094000010801E092185B41B8F1000F03DA0020C2
:100950000146BDE8F08D00204FF480110646844624
:100960000EE0171B73EB050705D3121B63EB0503A2
:1009700006434CEA010C49084FEA300092185B41EB
:1009800050EA0107EDD152EA030012D082EA0400D6
:1009900083EA0501084305D0101BAB4106D20122B2
:1009A000002306E000224FF0004302E06FF0010256
:1009B00053101AEB06004CEB085110EB0A0041EB08
:1009C0000B01BDE8F04D00F07CB900F0004230F0C2
:1009D00000400AD0C10D01F56071C0F3160042EA73
:1009E0000151C2084007114370470020014670477B
:1009F00030B5041E71F1000404DB4FF000444042A6
:100A000064EB0101141E73F1000405DB1C464FF07A
:100A10000043524263EB0403994208BF904230BD49
:100A200001F0004330B421F0004150EA010206D049
:100A30000A0DA2F56072C1F31301002A02DC30BC7A
:100A400000207047440F44EAC104C100E01830BCE4
:100A500000EBC25000F0FEB830B50B460146002056
:100A60002022012409E021FA02F59D4205D303FA70
:100A700002F5491B04FA02F52844151EA2F10102F1
:100A8000F1DC30BD202A04DB203A21FA02F00021FB
:100A9000704721FA02F3D040C2F12002914008438E
:100AA00019467047202A06DBCB17203A41FA02F09C
:100AB00043EAE07306E041FA02F3D040C2F12002BB
:100AC0009140084319467047014900F003B80000FF
:100AD000645D032010B500683C22B0FBF2F302FB1A
:100AE0001303B0FBF2F00B60B0FBF2F302FB130355
:100AF000B0FBF2F018224B60B0FBF2F302FB1303E1
:100B0000B0FBF2F0021D8B600723B2FBF3F403FB92
:100B10001422800040F2B55300F66C308A61B0FBBD
:100B2000F3F2B0FBF3F403FB1400443280084A6193
:100B3000C8613B2802D3920700D0401C0022074C1A
:100B400013460A61E25C824203D8801A5B1C0B6187
:100B5000F8E7401CC860084610BD000070230190F3
:100B60003A2800D2303820F02002412A01D3A2F1E5
:100B70003700884201D34FF0FF30704702681144BC
:100B80001378016018467047D160044951610449E7
:100B9000116200211161114600F028B97D0B00900F
:100BA000D90D0090426842B1016811F8013B23B1B0
:100BB000521EC0E90012184670470121C160881E0C
:100BC000704742685AB1C368016843B983688B4271
:100BD00005D0491E521CC0E90012002070474FF09A
:100BE000FF3070472DE9F04791460F468046044696
:100BF000002614F8015B2DB100F0EAF80068405DB2
:100C0000C007F6D12B2D02D02D2D18D0641E4A46D8
:100C10003946204600F080FA27B13968A14201D157
:100C2000C7F8008071054FF002040BD54042002840
:100C300003DD06F02DF90460A007BDE8F08746F457
:100C40008066E4E70028F8DA06F022F904606FF025
:100C50000040F2E70029A8BF7047401C490008BFC8
:100C600020F00100704710B4B0FA80FC00FA0CF0DC
:100C700050EA010404BF10BC704749B1CCF1200414
:100C800021FA04F411FA0CF118BF012121430843A1
:100C9000A3EB0C01CB1D4FEA00614FEA102042BFCD
:100CA000002010BC704700EBC35010440029A4BFC3
:100CB00010BC7047401C490008BF20F0010010BC68
:100CC000704710B5141E73F1000408DA401C41F19E
:100CD000000192185B411A4301D120F0010010BDC0
:100CE0002DE9F04D92469B4611B1B1FA81F202E036
:100CF000B0FA80F220329046FFF721FB04460F46FF
:100D000040EA0A0041EA0B0153465A46084313D011
:100D1000114653EA010019D0C8F140025046FFF7CE
:100D2000B1FE05460E46504659464246FFF707FBC0
:100D3000084305D0012004E020463946BDE8F08D87
:100D40000020054346EAE0762C4337430A986305C2
:100D5000E40AA0EB08000022FD0A44EA47540A30E6
:100D600002D500200146E9E7010510196941DDE9D6
:100D7000084500196941BDE8F04DA2E7C1F30A52E8
:100D8000C1F3130140F2FF3341F480119A4202DAB9
:100D900000200146704740F233439A42A2F23342A8
:100DA00002DC5242FFF76EBEFFF7C9BA064C074D90
:100DB00006E0E06840F0010394E80700984710342B
:100DC000AC42F6D3FFF710FA7C2501909C250190E8
:100DD000004870470024019010B50446FFF7F8FF63
:100DE0000068005D00F0010010BD00002DE9F34F28
:100DF0008BB04FF0000801F10C000C464FF0010BD6
:100E000046460DF1080A0190626901210198904758
:100E1000051E2DD0252D2CD0216A8847C0B16269CE
:100E2000012101989047216A88470028F7D1411E87
:100E300062690198904700E0761CA1690B98884789
:100E4000216A88470028F7D1E1690B988847DBE7DA
:100E5000A1690B9888470746A84201D1761CD3E7C1
:100E6000E1690B9888477F1C02D1B8F1000F6FD061
:100E700046E1002762693D463946019890472A2895
:100E800004D162690121019890470125DFF884921D
:100E90006269012101989047A0F130010A290AD224
:100EA0004F45E5DC07EB870100EB4107303FDFD41E
:100EB00045F01005ECE7E90601D46FF000476C2817
:100EC0000AD04C2814D0682815D06A280DD0742870
:100ED0001CD07A281AD01DE0626901210198904740
:100EE0006C2802D045F0040514E045F002050DE041
:100EF00045F020050AE062690121019890476828C1
:100F000002D045F0080505E045F40065626901215D
:100F100001989047C4E9015765283DD019DC58284D
:100F20007AD00CDC452837D004DC252826D041288F
:100F300031D131E046282FD047282CD12CE05B2836
:100F400077D0612828D063287CD0642823D15AE048
:100F5000D0E06F2848D008DC66281DD067281BD059
:100F6000692821D06E2816D127E0702845D0732833
:100F700068D0752847D078280DD14DE0A1690B982D
:100F80008847054625283FF469AFE1690B988847F3
:100F90006D1C3FF46AAFB3E023466A466FF0010070
:100FA0000B99AFF300809EE045F040006060A80719
:100FB00023464FF0000236D43EE0E8077FF447AF07
:100FC0002068011D21600068290501D506701BE716
:100FD000290701D5068017E7A90703D5F117C0E94E
:100FE000006111E706600FE745F040006060A80768
:100FF00023464FF0080216D41EE040F60E0125EA03
:101000000100606016E045F040006060A8072346DC
:101010004FF00A0207D40FE045F040006060A807D7
:1010200008D5234610226FF001000B99AFF3008022
:1010300059E007E0234610226FF001000B99FFF7FB
:1010400089FA50E04FF000094F464B46632802D022
:101050005B2806D040E0E80601D40120A06001270B
:101060003AE062690121019890475E2805D14FF06E
:1010700001096269494601989047216939B90021FF
:101080000A46534643F82120491C0829FADBB0B32D
:10109000216969B9C11700EBD16253110AEB8301D1
:1010A00022F01F02821A01200B68904003430B605C
:1010B00062690121019890475D28E8D1B9F1000FDC
:1010C00009D00020514651F82020D24341F8202079
:1010D000401C0828F7DB02AB224600976FF00100A6
:1010E0000B99AFF3008000280CDA401C08D1BBF14B
:1010F000000F05D04FF0FF300DB0BDE8F08FFFE7D7
:101100004046F9E7E90701D108F1010806444FF02C
:10111000000B79E6CCCCCC0C2DE9F05F8246007850
:10112000002715468B460AF10104B946302801D044
:101130009DB113E014F8010B0127782803D058283B
:1011400001D045B10AE00DB1102D07D100271025BF
:1011500014F8010B02E0082500E00A250026B0463D
:101160000EE005FB080005FB06F1012701EB104628
:101170001FFA80F8B6F5803F00D3B94614F8010B8A
:101180002946FFF7EDFC0028EBDABBF1000F05D094
:101190000FB1641E00E05446CBF80040B9F1000FD7
:1011A00006D005F075FE02210160C81EBDE8F09F63
:1011B00048EA0640FAE770B58D1810F8014B14F0B4
:1011C000030201D110F8012B231106D110F8013BC5
:1011D00003E010F8016B01F8016B521EF9D1ABB1BD
:1011E00010F8012B04F00C048A1A0C2C03D0A2EB8B
:1011F00084129B1C08E010F8014BA2EB0422F8E7D4
:1012000012F8014B01F8014B5B1EF9D5A942D4D36A
:10121000002070BD70B50546AC6B206C00F050002E
:1012200050BB206C40F4007020642068806800F09F
:101230004050E8B9A069D8B92068C06A00F47000CD
:1012400020B12068806800F4806088B92068406818
:1012500020F0200021684860206C20F48070206419
:10126000206C00F4805018B9206C40F0010020641C
:10127000204600F075FC0BE0206C00F0100018B167
:10128000204600F06FFC03E0A06BC16C2846884745
:1012900070BD70B50546AC6B40202064606C40F0BA
:1012A00004006064204600F05DFC70BD70B504462B
:1012B000A56B284600F055FC70BD00005849096830
:1012C00021F44031574AC2F804131146D1F80413EF
:1012D00042681143524A11600168496821F48071E3
:1012E0000268516001684A68016942EA01210268A6
:1012F00051600168496821F04071026851600168DD
:10130000496882681143026851600168896821F464
:1013100000610268916001688968C26811430268CF
:101320009160414A816A914218D00168896821F030
:1013300070610268916001688968826A114302687D
:1013400091600168896821F04051026891600168EC
:101350008968C26A1143026891600BE0016889687C
:1013600021F07061026891600168896821F0405144
:10137000026891600168896821F002010268916049
:1013800001688A68816942EA41010268916020210E
:10139000095CA1B10168496841F4006102685160CB
:1013A0000168496821F460410268516001684A6837
:1013B000416A491E42EA41310268516005E0016814
:1013C000496821F40061026851600168C96A21F42A
:1013D00070010268D1620168CA6A818B491E42EAC3
:1013E00001510268D1620168896821F400710268C4
:1013F000916001688A6890F8301042EA41210268E1
:1014000091600168896821F48061026891600168D7
:101410008A68416942EA8121026891607047000050
:1014200004230140002001400100000F2DE9FF418D
:1014300004460D461646002715E010222946684648
:10144000FEF7E6FF2146284604F04AF804F1F001D1
:10145000284605F0B7FC1022694604F1F000FEF7BB
:10146000D7FF10351037B742E7D3BDE8FF8170B51D
:1014700004460E4615463146204604F0DDFA102299
:10148000294604F1F000FEF7C3FF70BD70B50446B5
:101490000B46002013E000210DE0250105EB80053F
:1014A0000D44555D03EB8006765C754003EB8006CA
:1014B00075544D1CE9B20429EFDB451CE8B2042841
:1014C000E9DB70BD00BFFEE701460A2091FBF0F2A8
:1014D00000FB121291FBF0F002EB0010C0B270475B
:1014E00010B5024800F028FE10BD0000300B0020AF
:1014F00010B5024800F020FE10BD0000D00A002008
:1015000010B5024800F018FE10BD0000DC050020F8
:101510000146087810381823B0FBF3F20848805CC5
:10152000C865032A05D908686FF30900001D88659E
:1015300003E008686FF309008865886D7047000054
:10154000CC1E0190014600208A6A8B69CBB932B16A
:10155000012A0DD0022A03D0032A10D10EE000BFC9
:10156000CB6A03F08073B3F1807F00D1012007E0E4
:10157000CB6AB3F1C07F00D1012001E000E000BFE1
:1015800034E08B69B3F5005F1AD132B1012A07D07C
:10159000022A03D0032A11D10AE000BF01200EE085
:1015A000CB6A03F08073B3F1807F00D1012006E0A5
:1015B000CB6AB3F1C07F00D1012000E000BF15E08D
:1015C00032B1012A05D0022A04D0032A0CD103E04B
:1015D00000BF00BF012008E0CB6A03F08073B3F1C5
:1015E000807F00D1012000E000BF00BF704730B510
:1015F0000468246824F4802405682C60046863600F
:101600008468402C04D10468A2600468E16003E0AF
:101610000468A1600468E26030BD704710B54FF403
:10162000006001F0B7F84FF4805001F0B3F84FF4C8
:10163000005001F0AFF84FF4804001F0ABF810BD5E
:1016400010B5022001F0A6F810BD10B5102001F071
:10165000A1F810BD10B5802001F09CF84FF4007087
:1016600001F098F810BD70477CB504460020019049
:101670002546019517A0006800909DF806008DF89A
:1016800001009DF805008DF802009DF804008DF81A
:10169000030000F059F910B14FF0FF307CBD00227B
:1016A0004FF400410C4801F092F94FF47A73042290
:1016B00069460A4802F0EDFD0122D103064801F017
:1016C00086F900F0CBF810B14FF0FF30E6E70020CC
:1016D000E4E700002000000000000240A40B00200E
:1016E00001B582B000224FF400410C4801F06FF9BF
:1016F0004FF47A73012202A9094802F0CAFD4FF49F
:101700007A73012201A9064802F0F6FC0122D103F6
:10171000024801F05CF99DF804000EBD0000024093
:10172000A40B0020FEB504460D461646002002908C
:10173000029500224FF40041134801F048F913A12B
:1017400003C9CDE900019DF80A008DF801009DF85C
:1017500009008DF802009DF808008DF803004FF491
:101760007A73052269460B4802F093FDB2B242F249
:1017700010732146074802F0BFFC0122D103024842
:1017800001F025F90020FEBD000002400B00000022
:10179000FF000000A40B002008B5AB200090002241
:1017A0004FF40041084801F012F94FF47A73012216
:1017B0006946064802F06DFD0122D103024801F09E
:1017C00006F9002008BD000000000240A40B002024
:1017D00038B53520FFF784FF04460CB9012000E03E
:1017E000002000F0020008B1002038BD24F00204FF
:1017F00017A0006800908DF8014000F0A5F810B126
:101800004FF0FF30F1E700224FF40041114801F0A2
:10181000DEF84FF47A73022269460F4802F039FD70
:101820000122D1030B4801F0D2F800F017F810B1F3
:101830004FF0FF30D9E73520FFF752FF044604F0A0
:10184000020010B14FF0FF30CFE70020CDE70000DD
:101850003500000000000240A40B002070B50124F8
:101860000026A51E00BF0520FFF73AFF044604F03E
:10187000010018B1012008F065F801E0002505E03D
:101880003046761C41F288318842ECD300BF2846AE
:1018900070BD00002DE9FC4781460D461646E8B2B2
:1018A000C0F58078B04500D9B0462C46AF1900BFCE
:1018B00000200190019421A0006800909DF806008E
:1018C0008DF801009DF805008DF802009DF80400D8
:1018D0008DF8030000F038F810B1FF20BDE8FC8758
:1018E00000224FF40041164801F071F84FF47A736A
:1018F00004226946134802F0CCFC1FFA88F242F237
:10190000107349460F4802F0C4FC0122D1030C4871
:1019100001F05DF8FFF7A2FF08B1FF20DEE74444C5
:10192000C14404F58070B84201D9381B01E04FF47E
:1019300080708046BC42BBD30020CFE7F20000009D
:1019400000000240A40B0020F8B500240026651E0C
:1019500000224FF40041134801F039F806200090AE
:101960000A2301226946104802F093FC0122D103A8
:101970000C4801F02CF800BF0520FFF7B1FE04462B
:1019800004F0020008B1002508E0012007F0DAFFAA
:101990003046761C40F6B8318842EDD300BF284669
:1019A000F8BD000000000240A40B002018B502465C
:1019B0000020009000BF92F83C00012801D10220D5
:1019C00018BD012082F83C0000BF0868092822D910
:1019D0001068C0680B780A3B03EB43040723A3405D
:1019E00098431368D860594B0868984207D110682B
:1019F000C0680B7A40EA03601368D8601FE00B7878
:101A00000A3B03EB4303886898401368DB6818437C
:101A10001368D86013E0106800690B7803EB430487
:101A20000723A3409843136818610B7803EB430323
:101A30008868984013681B691843136818614868E0
:101A4000072817D21068406B0B795B1E03EB8304E9
:101A50001F23A340984313685863088880B20B790A
:101A60005B1E03EB8303984013685B6B184313689A
:101A7000586331E048680D2817D21068006B0B7965
:101A8000DB1F03EB83041F23A340984313681863F1
:101A9000088880B20B79DB1F03EB8303984013683F
:101AA0001B6B18431368186316E01068C06A0B7943
:101AB0000D3B03EB83041F23A34098431368D862B4
:101AC000088880B20B790D3B03EB830398401368C1
:101AD000DB6A18431368D8621D4B1068984208D11E
:101AE0000868122805D11B48006840F48000C3F83C
:101AF0000403174B1068984220D1144B0868984291
:101B000002D00868112819D11248006840F400007A
:101B1000104B18600D4B086898420FD10E480068B2
:101B20000E4BB0FBF3F000EB80004000009002E0B1
:101B30000098401E009000980028F9D100BF0020B6
:101B400082F83C0000BF00BF3AE70000120000101E
:101B500000200140042301401000002040420F00FB
:101B600070477047704701460868C06C70470000B6
:101B700070B5044600250CB9012070BD1549A06A56
:101B8000884200D000BF206C30B9204600F024F815
:101B90000020606484F83C00206C00F0100088B9DC
:101BA000206C20F4885040F0020020642046FFF7AB
:101BB00085FB00206064206C20F0020040F00100F2
:101BC000206400E0012500BF002084F83C0000BF35
:101BD0002846D2E70100000F10B586B00446142154
:101BE00001A8FEF73CFC26492068884246D100BF88
:101BF0002448006840F48070224908600846006864
:101C000000F48070009000BF00BF00BF1D48143872
:101C1000006840F004001B49143908600846006859
:101C200000F00400009000BF00BF012001900320DD
:101C300002900020039001A9134800F0B9FD134859
:101C40001349086000204860002111488160C1608C
:101C50004FF480610161490041618900816149114E
:101C6000C16100210162416200F086FB08B1FFF70B
:101C7000FAFC00BF0648A063846300BF06B010BD35
:101C80000020014044380240000802401064024035
:101C9000DC05002008B501460020009000BF91F847
:101CA0003C00012801D1022008BD012081F83C0040
:101CB00000BF0868806800F00100A0B9086880686B
:101CC00040F001000A68906039480068394AB0FB6A
:101CD000F2F000EB4000009002E00098401E0090FF
:101CE00000980028F9D10868806800F001000028F9
:101CF0005BD0086C40F20162904340F4807008644D
:101D00000868406800F4806028B1086C20F4005036
:101D100040F480500864086C00F48050B0F5805F97
:101D200004D1486C20F00600486401E000204864BB
:101D300000BF002081F83C0000BF6FF022000A685D
:101D400010601D48006800F01F0058B908688068DE
:101D500000F0405048BB0868806840F080400A6846
:101D6000906022E0154A086890420AD108688068AD
:101D700000F0405028B90868806840F080400A6848
:101D800090600D48006800F0100070B90C4A0868B7
:101D900090420AD10868806800F0405028B908686D
:101DA000806840F080400A68906000207CE7000076
:101DB0001000002040420F00042301400020014099
:101DC00000220140F8B504460D461646002000905A
:101DD00000BF94F83C00012801D10220F8BD012089
:101DE00084F83C0000BF2068806800F00100A0B9C2
:101DF0002068806840F001002168886047480068DA
:101E00004749B0FBF1F000EB4000009002E0009881
:101E1000401E009000980028F9D12068806800F0EA
:101E20000100002878D0206C40F20161884340F422
:101E3000807020642068406800F4806028B1206CC5
:101E400020F4005040F480502064206C00F4805056
:101E5000B0F5805F04D1606C20F00600606401E0A2
:101E60000020606400BF002084F83C0000BF2D48C3
:101E7000A16BC8632C48A16B08642C48A16BC86493
:101E80006FF02200216808602068406840F08060A0
:101E9000216848602068806840F48070216888600C
:101EA000226802F14C0133462A46A06B00F0DAFAB0
:101EB0001F48006800F01F0058B92068806800F0D3
:101EC000405028B92068806840F0804021688860D0
:101ED00022E01849206888420AD12068806800F012
:101EE000405028B92068806840F0804021688860B0
:101EF0000F48006800F0100070B90F492068884250
:101F00000AD12068806800F0405028B920688068B5
:101F100040F080402168886000205FE710000020CA
:101F200040420F0015120090AD12009093120090E5
:101F3000042301400020014000220140014600BF6F
:101F400091F83C00012801D102207047012081F85E
:101F50003C0000BF0868806820F001000A689060BB
:101F60000868806800F0010028B9086C20F48850E7
:101F700040F00100086400BF002081F83C0000BF71
:101F800000BFE2E770B503460C4600201F2100BFEA
:101F90000D1EA1F1010106D001F01F060125B5407B
:101FA0002540002DF4D08AB1082A0BD0102A05D084
:101FB000182A0CD1072900D301200AE0082900D3F0
:101FC000012006E0102900D3012002E001E00120F9
:101FD00000BF00BF40B91D686C611D68AD6825F089
:101FE000180515431E68B56070BD000010B50446A5
:101FF0000CB9012010BD607F20B900202077204659
:1020000000F036F802206077207948B91748216837
:1020100048612068806820F018002168886007E027
:102020002046D4E90212FFF7ADFF08B10120E1E735
:10203000607920B94FF0FF302168086102E0216823
:10204000206908612068806820F0600061690843A9
:10205000216888602068806820F08000A1690843BA
:1020600021688860012060770020C3E7B71DC104A4
:1020700008B5094A016891420DD100BF07490968B6
:1020800041F48051054A11601146096801F48051FC
:10209000009100BF00BF08BD003002403038024050
:1020A000014691F83500022803D0802048650120C0
:1020B0007047052081F835000868006820F00100AD
:1020C0000A6810600020F3E770B504460CB90120DF
:1020D00070BD94F83500022800D1F9E72068006847
:1020E00020F0010021680860002021680860216854
:1020F0004860216888602168C860216808612120E3
:10210000216848612046FFF703FA054694F85C1001
:102110003F208840A8600020E06320646064A064E1
:10212000E0642065606584F8350000BF84F8340001
:1021300000BF00BFCCE70000F8B5044600200090C7
:102140008C4800684FF41651B0FBF1F7A56D2E686E
:1021500094F85C1008208840304098B120680068EE
:1021600000F0040070B12068006820F004002168CD
:10217000086094F85C1008208840A860606D40F00A
:102180000100606594F85C1001208840304068B11F
:102190002068406900F0800040B194F85C10012094
:1021A0008840A860606D40F00200606594F85C10A3
:1021B00004208840304068B12068006800F00200C8
:1021C00040B194F85C1004208840A860606D40F035
:1021D0000400606594F85C1010208840304078B3AB
:1021E0002068006800F0080050B394F85C101020DC
:1021F0008840A8602068006800F4802080B12068D2
:10220000006800F4002028B9206CC8B12046216C79
:10221000884715E0A06C98B12046A16C88470FE074
:102220002068006800F4807028B92068006820F0F9
:10223000080021680860206C10B12046216C884796
:1022400094F85C10202088403040002865D0206839
:10225000006800F0100000285FD094F85C10202087
:102260008840A86094F83500052828D120680068C7
:1022700020F01600216808602068406920F0800086
:1022800021684861206C08B9A06C28B120680068FA
:1022900020F008002168086094F85C103F20884016
:1022A000A86000BF002084F8340000BF012084F83B
:1022B0003500206D10B12046216D8847F8BD20689B
:1022C000006800F4802080B12068006800F40020DD
:1022D00028B9606C10B12046616C88471DE0E06B46
:1022E000D8B12046E16B884717E02068006800F409
:1022F000807068B92068006820F0100021680860CC
:1023000000BF002084F8340000BF012084F83500AD
:10231000E06B10B12046E16B8847606D38B3606DAB
:1023200000F00100F0B1052084F835002068006855
:1023300020F001002168086000BF0098401C009058
:10234000B84200D905E02068006800F001000028CC
:10235000F3D100BF00BF002084F8340000BF01208B
:1023600084F83500E06C10B12046E16C884700BF6E
:10237000A4E70000100000202DE9F04104460025EC
:1023800000F02CFB074614B90120BDE8F081606A1B
:1023900000B100BF00BF002084F8340000BF02205D
:1023A00084F835002068006820F00100216808608A
:1023B0000AE000F013FBC01B052805D9202060654A
:1023C000032084F83500E0E72068006800F0010091
:1023D0000028EED12068056821480540D4E90101B4
:1023E0000843E16808432169084361690843A1691A
:1023F0000843E1690843216A08430543606A0428E9
:1024000003D1D4E90B010843054320680560206827
:10241000456925F00705606A0543606A04280DD107
:10242000A06A0543E06A48B12046FFF78BF828B15F
:1024300040206065012084F83500A6E720684561EA
:102440002046FFF765F8064694F85C103F20884068
:10245000B06000206065012084F83500002094E71A
:102460003F8010E02DE9F04704460D4616461F4612
:102470004FF00008D4F8589000BF94F834000128B9
:1024800002D10220BDE8F087012084F8340000BFAB
:1024900094F8350001282BD1022084F83500002063
:1024A00060653B46324629462046FFF7A0F894F87F
:1024B0005C103F208840C9F808002068006840F0A0
:1024C0001600216808602068406940F0800021689B
:1024D0004861206C28B12068006840F0080021683D
:1024E00008602068006840F001002168086006E08C
:1024F00000BF002084F8340000BF4FF002084046BF
:10250000C0E70000F0B50C460025002200230021A2
:1025100092E0012606FA01F504EA0502AA427DD1FD
:10252000474E8F0856F827308E07370F0F26BE40CC
:102530003340444EB04201D1002623E0424EB04227
:1025400001D101261EE0414EB04201D1022619E020
:102550003F4EB04201D1032614E03E4EB04201D1BD
:1025600004260FE03C4EB04201D105260AE03B4E66
:10257000B04201D1062605E0394EB04201D107260E
:1025800000E008268F073F0FBE409E4222D18E07F3
:10259000370F0F2606FA07F3294E8F0856F82760E3
:1025A0009E43274F4FEA910C47F82C602D4E36681A
:1025B00096432C4F3E603E1D366896433F1D3E605D
:1025C0003E1D366896433F1D3E603E1D366896436D
:1025D0003F1D3E6006684FEA410C032707FA0CF7DF
:1025E000BE430660CF0800F1200656F827604F076B
:1025F0004FEAD76C0F2707FA0CF7BE434FEAD10C0E
:1026000000F1200747F82C6086684FEA410C032749
:1026100007FA0CF7BE438660476800E00BE001262E
:102620008E40B7434760C6684FEA410C032707FA5C
:102630000CF7BE43C660491C1029FFF46AAFF0BD19
:102640000838014000000240000402400008024037
:10265000000C02400010024000140240001802402A
:10266000001C0240003C01402DE9F84306460020D2
:1026700000904FF4000780460024B6F5006F40D06C
:1026800009DC022E11D0102E1AD0802E23D0B6F5E0
:10269000007F62D12AE0B6F5805F3DD0B6F5005FDD
:1026A00045D0B6F5804F58D14CE0052006F068F9CA
:1026B0000446012C01D1202701E04FF400574DE0E2
:1026C000042006F05DF90446012C01D1102701E039
:1026D0004FF4805742E0062006F052F90446012CE0
:1026E00001D1402701E04FF4804737E0012006F098
:1026F00047F90446012C01D1022701E04FF400778D
:102700002CE0072006F03CF90446012C01D180277B
:1027100001E04FF4004721E0002006F031F90446C3
:10272000012C01D1012701E04FF4807716E002204F
:1027300006F026F90446012C01D1042701E04FF4EC
:1027400080670BE0032006F01BF90446012C01D141
:10275000082701E04FF4006700E000BF00BF6B46B0
:102760003A460948016809480FF082FB0546012DE9
:1027700008D1009830B1280705490860BFF34F8F92
:10278000BFF36F8FBDE8F883F80200207DFA009058
:1027900004ED00E010B5044604480068204020B174
:1027A000024804602046FFF75FFF10BD143C014063
:1027B000F8B502460B46002100250024002000BF8A
:1027C000DAE0012606FA01F51E6806EA0504AC42C5
:1027D00071D15E68022E02D05E68122E13D1CF082E
:1027E00002F1200656F827004E07F70E0F26BE40CE
:1027F000B0434F07FF0E1E69BE403043CF0802F1C1
:10280000200646F8270010684F000326BE40B0435C
:102810001E7906F003064F00BE40304310605E682C
:10282000012E08D05E68022E05D05E68112E02D0FF
:102830005E68122E13D190684F000326BE40B0434D
:102840004F00DE68BE4030439060506801268E40E5
:10285000B0431E79C6F300168E4030435060D068F6
:102860004F000326BE40B0434F009E68BE40304339
:10287000D0605E6806F08056B6F1805F7BD100BF05
:102880003F4E366846F480463D4F3E603E463668D1
:1028900006F48046009600BF00BF3A4E8F0856F8F7
:1028A00027008E07370F0F26BE40B043364EB24288
:1028B00002D1002624E05EE0344EB24201D101266E
:1028C0001EE0334EB24201D1022619E0314EB2422F
:1028D00001D1032614E0304EB24201D104260FE0AC
:1028E0002E4EB24201D105260AE02D4EB24201D150
:1028F000062605E02B4EB24201D1072600E008264D
:102900008F073F0FBE4030431E4E8F0846F827000A
:10291000254E3068A0435E6806F48036B6F5803FE9
:1029200000D12043204E3060361D3068A0435E68E1
:1029300006F40036B6F5003F00D120431A4E361D8E
:102940003060361D3068A0435E6806F48016B6F528
:10295000801F00D12043144E08363060361D306889
:10296000A0435E6806F40016B6F5001F00D12043B0
:102970000D4E0C363060491C1029FFF422AFF8BD13
:102980004438024008380140000002400004024080
:1029900000080240000C02400010024000140240F7
:1029A00000180240001C0240003C0140024613692E
:1029B0000B400BB1012000E00020704742690A4043
:1029C0008A4202D10A04826100E0816170470AB143
:1029D000816101E00B0483617047000001480068D9
:1029E00070470000040000200148006870470000A4
:1029F000107AF01F0148006870470000147AF01F39
:102A00000148006870470000187AF01F014600BFB7
:102A100091F87000012801D102207047012081F84F
:102A2000700000BF242048670868006820F00C0090
:102A30000A6810600868006840F004000A681060C6
:102A40002020486700BF002081F8700000BF00BF51
:102A5000E3E7014600BF91F87000012801D1022090
:102A60007047012081F8700000BF24204867086883
:102A7000006820F00C000A6810600868006840F0E8
:102A800008000A6810602020486700BF002081F815
:102A9000700000BF00BFE3E710B504460CB9012089
:102AA00010BD606F28B9002084F87000204602F045
:102AB000FBF9242060672068006820F0010021688D
:102AC0000860204603F04EFF012800D1E8E7606A65
:102AD00010B1204603F00EFE2068406820F49040BC
:102AE000216848602068806820F0220021688860A2
:102AF0002068806840F008002168886020680068CD
:102B000040F0010021680860204603F06FFEC7E72F
:102B10000348006803490978084401490860704780
:102B2000040000200C00002010B5032000F0C4F8C1
:102B30000F2000F005F800F029F8002010BD00007B
:102B400070B504460E4800784FF47A71B1FBF0F08E
:102B50000C490968B1FBF0F5284601F0E7FD08B122
:102B6000012070BD102C07D200222146501E00F01B
:102B700065F80548046001E00120F2E70020F0E775
:102B80000C000020100000200800002008B500BF45
:102B90001048006840F080500E4908600846006800
:102BA00000F08050009000BF00BF00BF081D00680B
:102BB00040F48040091D08600846006800F4804029
:102BC000009000BF00BF00220F21901E00F036F8D9
:102BD00008BD00004038024010B5014608460028F4
:102BE00017DB00F01F0301229A400B4B440943F806
:102BF000242000BF00BF00BFBFF34F8F00BF00BF46
:102C000000BF00BF00BF00BFBFF36F8F00BF00BF9A
:102C100000BF00BF10BD000080E100E00146084693
:102C2000002809DB00F01F0301229A4043099B00A2
:102C300003F1E023C3F8002100BF70472DE9F05FE6
:102C400080460D461646002704F006F90746394629
:102C50002A46334601F00700C0F1070ABAF1040F13
:102C600002D94FF0040A01E0C0F1070AD14600F191
:102C7000040ABAF1070F02D24FF0000A01E0A0F1F6
:102C8000030AD4464FF0010A0AFA09FAAAF1010A26
:102C90000AEA020A0AFA0CFA4FF0010B0BFA0CFBD3
:102CA000ABF1010B0BEA030B4AEA0B042146404649
:102CB00004F0DAF8BDE8F09F00BF00F00702064B11
:102CC00019684FF6FF031940044B0B4343EA0221F6
:102CD000014B196000BF70470CED00E00000FA05E1
:102CE00038B5002400BF2048006840F080501E49DD
:102CF00008600846006800F08050009000BF00BFE8
:102D00001A48006840F4803018490860FFF766FEF2
:102D1000044607E0FFF762FE001BB0F57A7F01D999
:102D2000032038BD1148406800F48030B0F5803F82
:102D3000F0D10E48006840F400300C490860FFF7FD
:102D40004DFE044607E0FFF749FE001BB0F57A7F11
:102D500001D90320E5E70548406800F40030B0F5EC
:102D6000003FF0D10020DCE7403802400070004016
:102D70000348006840F48070014908607047000013
:102D8000007000402DE9F843044600260025002786
:102D9000A846207800F0010080B100BFFE4800681E
:102DA00020F40000FC49086008460068E16A084316
:102DB000F949086000BFE06A00B90127206800F403
:102DC0000020B0F5002F12D1F3488430006820F4C1
:102DD0004010616B0843F04984310860606BB0F5C6
:102DE000801F00D10127606B08B94FF001082068EF
:102DF00000F48010B0F5801F12D1E74884300068DD
:102E000020F44000A16B0843E34984310860A06BC3
:102E1000B0F5800F00D10127A06B08B94FF0010871
:102E2000207800F02000202870D100BFDA48383028
:102E3000006840F08050D849383108600846006882
:102E400000F08050009000BF00BFD448006840F4FC
:102E50008070D2490860FFF7C1FD064607E0FFF722
:102E6000BDFD801B642802D90320BDE8F883CB4850
:102E7000006800F480700028F1D0C748683000680E
:102E800000F4407585B3208D00F44070A8422BD02B
:102E9000C1486830006820F44075BF486830006859
:102EA00040F48030BC49683108600846006820F46E
:102EB0008030086008460560006800F0010098B1A5
:102EC000FFF78CFD064608E0FFF788FD801B41F206
:102ED0008831884201D90320C7E7AF4868300068CD
:102EE000C0F340000028EFD000BF208D00F44070F8
:102EF000B0F5407F0BD1A848006820F4F810A84A2C
:102F0000A16A11400843A449086006E010E0A24805
:102F1000006820F4F810A04908609F4868300068F5
:102F2000218DC1F30B0108439B496831086000BF44
:102F3000207800F01000102810D100BF964884308F
:102F4000006820F080709449843108600846006869
:102F5000216B084390498431086000BF208800F449
:102F60008040B0F5804F09D18B488830006820F44C
:102F70004030E16D0843884988310860208800F4BA
:102F80000040B0F5004F09D183488830006820F434
:102F90004020216E0843804988310860206800F491
:102FA0008030B0F5803F09D17B488830006820F43C
:102FB0004010616E0843784988310860207800F03D
:102FC0004000402809D174488830006820F0030090
:102FD000E16B0843704988310860207800F0800078
:102FE000802809D16C488830006820F00C00216CE2
:102FF0000843694988310860208800F48070B0F582
:10300000807F09D164488830006820F03000616C0E
:103010000843614988310860208800F40070B0F5E9
:10302000007F09D15C488830006820F0C000A16CA6
:103030000843594988310860208800F48060B0F561
:10304000806F09D154488830006820F44070E16CEA
:103050000843514988310860208800F40060B0F5C9
:10306000006F09D14C488830006820F44060216D21
:103070000843494988310860208800F48050B0F541
:10308000805F09D144488830006820F44050616D69
:103090000843414988310860208800F40050B0F5A9
:1030A000005F09D13C488830006820F44040A16DA1
:1030B0000843394988310860206800F40010B0F5F1
:1030C000001F0FD134488830006820F00060616F25
:1030D0000843314988310860606FB0F1006F01D159
:1030E0004FF00108206800F48020B0F5802F09D14E
:1030F00029488830006820F04070E16E0843264976
:1031000088310860206800F40000B0F5000F09D194
:1031100021488830006820F08050A16F08431E4984
:1031200088310860206800F08060B0F1806F09D1BC
:1031300019488830006820F00050E16F08431649B4
:1031400088310860012F03D02068B0F1007F7CD166
:1031500011480838006820F080600F49083908607D
:10316000FFF73CFC064606E0FFF738FC801B6428AE
:1031700001D9032079E6084808380068C0F3C06028
:103180000028F1D1207800F00100B0B1E06AA0B9C8
:1031900001487C30006805E00838024000700040BB
:1031A000FFFCFF0FC0F303656068800140EA056122
:1031B000207A41EA00706B490860206800F4002022
:1031C000B0F5002F03D1606BB0F5801F09D02068E7
:1031D00000F48010B0F5801F1BD1A06BB0F5800FFC
:1031E00017D160480068C0F3027560688101207BD8
:1031F00041EA006040EA05705A49086059480830C1
:10320000006820F01F00E169491E08435549083154
:103210000860206800F00070B0F1007F09D160689C
:103220008101207B41EA0061207A41EA00704D492A
:1032300008604C488438006840F08060494984390F
:103240000860FFF7CBFB064607E00DE0FFF7C6FB83
:10325000801B642801D9032007E6424884380068AF
:10326000C0F3C0600028F1D0B8F1010F77D13D481C
:103270008438006820F080503A4984390860FFF7AC
:10328000ADFB064606E0FFF7A9FB801B642801D9C9
:103290000320EAE5334884380068C0F34070002812
:1032A000F1D1206800F40020B0F5002F01D1606B4F
:1032B00038B1206800F48010B0F5801F1BD1A06BDE
:1032C000C8B92848001D0068C0F301452069800185
:1032D00040EA0541207D41EA00602249091D08605D
:1032E000081D006820F4F851206A401E41EA0020C1
:1032F0001C4908310860206800F40010B0F5001F78
:1033000012D1606FB0F1006F0ED11648001D006839
:10331000C0F3036520698101208B41EA004040EA47
:1033200005601049091D08600E488438006840F0A7
:1033300080500C4984390860FFF750FB064607E0CF
:10334000FFF74CFB801B642802D903208DE506E0C3
:10335000044884380068C0F340700028F0D0002092
:1033600083E500008438024070B504460D4600260F
:103370000CB9012070BD5C48006800F00F00A84245
:103380000ED25948006820F00F00284356490860C3
:103390000846006800F00F00A84201D00120E9E7CC
:1033A000207800F0020002281DD1207800F00400EF
:1033B000042805D14D48006840F4E0504B490860AE
:1033C000207800F00800082805D14848006840F43B
:1033D0006040464908604548006820F0F000A16858
:1033E000084342490860207800F0010090B360680B
:1033F000012807D13D4808380068C0F34040A0B913
:103400000120B7E76068022807D13848083800680B
:10341000C0F3406048B90120ACE734480838006880
:10342000C0F3400008B90120A4E73048006820F04C
:103430000300616808432D490860FFF7CFFA06468C
:1034400009E0FFF7CBFA801B41F28831884202D9AC
:1034500003208FE707E02548006800F00C00616852
:10346000B0EB810FEDD12048006800F00F00A842BA
:103470000ED91D48006820F00F0028431A49086043
:103480000846006800F00F00A84201D0012071E753
:10349000207800F00400042807D11448006820F4C4
:1034A000E050E168084311490860207800F0080006
:1034B000082808D10D48006820F46040216940EADE
:1034C000C1000A49086000F03DF808490968C1F3E5
:1034D0000311074A515CC840064908600F20FFF7F6
:1034E0002FFB002046E70000003C02400838024065
:1034F000D41E0190100000200148006870470000B1
:103500001000002000B5FFF7F7FF04490968C1F378
:103510008221034A515CC84000BD000008380240C7
:10352000E41E019000B5FFF7E7FF04490968C1F305
:103530004231034A515CC84000BD000008380240D7
:10354000E41E01902DE9F047002400250026A14645
:103550002548006800F00C0020B1042805D0082898
:103560003AD105E0DFF8849039E0DFF8849036E066
:103570001D48001F006800F03F041B48001F006842
:1035800000F4800078B11A481749091F0968C1F38F
:103590008811A0FB01700146224600233846FCF743
:1035A0009DFE05460EE011480F49091F0968C1F349
:1035B0008811A0FB01700146224600233846FCF723
:1035C0008DFE05460848001F0068C0F30140401CFE
:1035D0004600B5FBF6F902E0DFF8109000BF00BF2F
:1035E0004846BDE8F0870000083802400024F40097
:1035F00000366E01F8B5044600260CB90120F8BD6E
:10360000207800F00100002871D0F848006800F030
:103610000C0004280DD0F548006800F00C000828C4
:1036200013D1F248001F006800F48000B0F5800F4D
:103630000BD1EE4808380068C0F34040002869D03C
:103640006068002866D10120D9E700BF6068B0F546
:10365000803F08D1E5480838006840F48030E349ED
:10366000083908602EE0606868B9E04808380068EA
:1036700020F48030DD49083908600846006820F4ED
:10368000802008601EE06068B0F5A02F0DD1D748FB
:103690000838006840F48020D4490839086008469A
:1036A000006840F4803008600CE0D04808380068BA
:1036B00020F48030CD49083908600846006820F4BD
:1036C0008020086000BF606890B1FFF787F9054669
:1036D00006E0FFF783F9401B642801D903208EE739
:1036E000C24808380068C0F340400028F1D011E01B
:1036F000FFF774F9054606E0FFF770F9401B6428F0
:1037000001D903207BE7B94808380068C0F340407E
:103710000028F1D1207800F00200022869D1B348D6
:10372000006800F00C0058B1B048006800F00C00D0
:1037300008281CD1AD48001F006800F48000B0B913
:10374000AA4808380068C0F3400020B1E0680128AA
:1037500001D0012053E7A5480838006820F0F800A0
:10376000216940EAC100A1490839086041E0E068E8
:1037700028B39E480838006840F001009B4908398A
:103780000860FFF72BF9054606E0FFF727F9401B15
:10379000022801D9032032E7944808380068C0F3B2
:1037A00040000028F1D091480838006820F0F80067
:1037B000216940EAC1008D490839086019E08B4849
:1037C0000838006820F00100884908390860FFF7D0
:1037D00005F9054606E0FFF701F9401B022801D96B
:1037E00003200CE7814808380068C0F34000002837
:1037F000F1D1207800F00800082836D16069D0B1F6
:103800007A486C30006840F0010078496C310860FB
:10381000FFF7E4F8054606E0FFF7E0F8401B022852
:1038200001D90320EBE671486C300068C0F340001A
:103830000028F1D019E06D486C30006820F00100DC
:103840006A496C310860FFF7C9F8054606E0FFF7E2
:10385000C5F8401B022801D90320D0E663486C302C
:103860000068C0F340000028F1D1207800F0040087
:10387000042874D15D483830006800F0805080B969
:1038800000BF5A483830006840F0805057493831FE
:1038900008600846006800F08050009000BF00BF3C
:1038A00001265348006800F48070B0B950480068A1
:1038B00040F480704E490860FFF790F8054606E036
:1038C000FFF78CF8401B642801D9032097E648488D
:1038D000006800F480700028F2D000BFA0680128C2
:1038E00008D142486830006840F001003F49683123
:1038F00008602DE0A06868B93C486830006820F096
:1039000001003A49683108600846006820F0040068
:1039100008601DE0A06805280DD1344868300068B3
:1039200040F004003149683108600846006840F002
:10393000010008600CE02D486830006820F00100AC
:103940002A49683108600846006820F004000860D1
:1039500000BFA068A8B1FFF741F8054609E02EE0D6
:10396000FFF73CF8401B41F28831884201D903201F
:1039700045E61E4868300068C0F340000028EFD0DC
:1039800013E0FFF72BF8054608E0FFF727F8401B88
:1039900041F28831884201D9032030E6134868306B
:1039A0000068C0F340000028EFD1012E07D10F4876
:1039B0003830006820F080500C4938310860A06928
:1039C000E8B30A48006800F00C00082866D0A06937
:1039D00002284BD105480838006820F08070034960
:1039E00008390860FEF7FAFF05460AE00838024089
:1039F00000700040FEF7F2FF401B022801D90320AF
:103A0000FDE528480068C0F340600028F2D1E06975
:103A100040F00050216A0843616A40EA81110122A6
:103A2000A06AC2EB500041EA00412C20005D41EA4F
:103A300000601C49091D0860081F006800E02FE0B5
:103A400040F08070091F0860FEF7C8FF054606E0D9
:103A5000FEF7C4FF401B022801D90320CFE511481F
:103A60000068C0F340600028F2D019E00D480068FB
:103A700020F080700B490860FEF7B0FF054606E0B5
:103A8000FEF7ACFF401B022801D90320B7E505482B
:103A90000068C0F340600028F2D101E00120AEE5EB
:103AA0000020ACE50038024010B504460CB90120F6
:103AB00010BD607920B900202071204600F00EF87A
:103AC000022060712068006840F0040021680860EE
:103AD000012060710020A06000BFE9E708B5094A35
:103AE000016891420DD100BF0749096841F04001CA
:103AF000054A11601146096801F04001009100BFBC
:103B000000BF08BD000806503438024030B50346F7
:103B1000002400BF187F012801D1022030BD012000
:103B2000187700BF022058771868806840F60805AB
:103B300020EA05040C4300BFCA201D6868625320B8
:103B40001D68686200BF1868C06C20F006001D6820
:103B5000E8641868C06C10431D68E86418688460E5
:103B60001868806840F400601D68A86000BFFF20EE
:103B70001D68686200BF0120587700BF00201877D9
:103B800000BF00BFCAE7000070B505460B461646E9
:103B90000024286840680E4900EA0104200CD8700F
:103BA000C4F30420587004F03F009870C4F342300E
:103BB00018705EB9D87802F0DCFAD870587802F044
:103BC000D8FA5870987802F0D4FA9870002070BD36
:103BD0003FFFFF0070B504460B46164600252068DF
:103BE000806A586020680069C0F30E009860206801
:103BF00000680F4900EA0105C5F305401870C5F3D8
:103C00000620587005F07F00987005F48000000CC5
:103C100018735EB9187802F0ACFA1870587802F090
:103C2000A8FA5870987802F0A4FA9870002070BD35
:103C30007F7F7F0010B504460CB9012010BD607F66
:103C400020B900202077204600F04EF8022060774F
:103C500000BFCA202168486253202168486200BF23
:103C6000204602F09EFA40B100BFFF202168486262
:103C700000BF042060770120E0E7206880681949D0
:103C800008402168886021696068084361690843C9
:103C9000216889680843216888602168E0680861B4
:103CA00020680169208941EA004021680861206894
:103CB000C06820F080002168C8602068C06C20F0D7
:103CC00008002168C8642068C06CA16908432168A5
:103CD000C86400BFFF202168486200BF01206077F0
:103CE0000020ABE7BFFF8FFF054A0168914205D175
:103CF0000449096841F40041024A1160704700001C
:103D000000280040703802402DE9F04104460D467D
:103D10001646002700BF207F012802D10220BDE8FF
:103D2000F0810120207700BF022060774EB96878CB
:103D300000F01000102804D1687800F0EF000A307D
:103D4000687086B9E87802F01FFA0304687802F018
:103D50001BFA43EA0023A87802F016FA03432878F6
:103D600043EA403709E0E8780004697840EA012036
:103D7000A9780843297840EA413700BFCA20216862
:103D8000486253202168486200BF204602F009FAC9
:103D900060B100BFFF202168486200BF0420607747
:103DA00000BF0020207700BF0120B8E71648384048
:103DB000216848602068C06820F080002168C860E1
:103DC0002068806800F0200080B9204600F0B4F838
:103DD00060B100BFFF202168486200BF0420607707
:103DE00000BF0020207700BF012098E700BFFF2020
:103DF0002168486200BF0120607700BF0020207763
:103E000000BF00BF8BE700003FFFFF002DE9F0413E
:103E100004460D461646002700BF207F012802D128
:103E20000220BDE8F0810120207700BF02206077EA
:103E3000CEB92068806800F0400000B102E00020A8
:103E4000287300BF287802F09FF90304687802F015
:103E50009BF943EA0023A87802F096F90343287BF4
:103E600043EA004712E02068806800F0400000B19B
:103E700002E00020287300BF28780004697840EA37
:103E80000120A9780843297B40EA014700BFCA20E6
:103E90002168486253202168486200BF204602F032
:103EA00080F960B100BFFF202168486200BF042094
:103EB000607700BF0020207700BF0120B1E71D48D8
:103EC0003840216808602068806820F480202168DC
:103ED0008860D5E90401084321688968084321689E
:103EE00088602068C06820F080002168C860206871
:103EF000806800F0200080B9204600F01DF860B115
:103F000000BFFF202168486200BF0420607700BF27
:103F10000020207700BF012083E700BFFF20216839
:103F2000486200BF0120607700BF0020207700BFFB
:103F300000BF76E77F7F7F0070B5044600252068CC
:103F4000C06820F0A0002168C860FEF747FD054664
:103F500007E0FEF743FD401BB0F57A7F01D903204F
:103F600070BD2068C06800F020000028F1D000205B
:103F7000F6E770B504460CB9012070BD606A00B95F
:103F800000BF0021A16294F85D0028B9002084F8E8
:103F90005C00204600F054F8022084F85D002068A0
:103FA000006820F0400021680860E068B0F5E06F2C
:103FB00001D9002501E04FF48055E068B0F5706F3D
:103FC00005D0E068B0F5E06F01D00021A162206B60
:103FD00040B9E068B0F5E06F02D90221216301E049
:103FE00001212163D4E90101084321690843616982
:103FF0000843218B01F400710843E1690843216AF9
:104000000843A16A0843216808600421A06901EA05
:104010001040616A0843616B0843E1680843284324
:10402000216848602068C06920F400602168C86188
:1040300000202066012084F85D0000209DE700003C
:1040400010B586B00446142101A8FCF708FA2649E9
:104050002068884246D100BF2448006840F4805060
:10406000224908600846006800F48050009000BFB4
:1040700000BF00BF1D481438006840F001001B4914
:10408000143908600846006800F00100009000BF85
:1040900000BF00BF0846006840F002000860084604
:1040A000006800F00200009000BF00BF38200190BF
:1040B0000220029000200390032004900520059028
:1040C00001A90B48FEF774FB4FF40040019001205A
:1040D00002900390032004900020059001A9054858
:1040E000FEF766FB06B010BD0030014044380240C8
:1040F00000040240000002402DE9F84304468846CF
:1041000016461D464FF000096068B0F5827F0DD15C
:10411000A06858B9042084F85D0033464246414601
:104120002046009500F0A4F9BDE8F88300BF94F89C
:104130005C00012801D10220F6E7012084F85C0030
:1041400000BFFEF74BFC074694F85D00012802D043
:104150004FF0020993E0B8F1000F00D016B94FF00C
:1041600001098CE0042084F85D0000202066C4F87A
:104170004080A4F84460A4F84660A063A087E0876C
:10418000E0642065E068B0F5E06F06D9206840681B
:1041900020F480502168486005E02068406840F4C1
:1041A000805021684860A068B0F5004F05D12068B4
:1041B000006820F48040216808602068006800F0F2
:1041C0004000402805D02068006840F04000216889
:1041D0000860E068B0F5E06F22D81CE020688068D5
:1041E00000F0010060B12068007B216C0870206C39
:1041F000401C2064B4F84600401EA4F846000AE0C3
:10420000FEF7ECFBC01BA84201D3681C00B915B92E
:104210004FF0030933E0B4F846000028DED121E076
:104220001CE02068806800F0010060B12068C06870
:10423000216C0880206C801C2064B4F84600401E6D
:10424000A4F846000AE0FEF7C9FBC01BA84201D350
:10425000681C00B915B94FF0030910E0B4F8460026
:104260000028DED13A462946204601F0B9FF08B1C0
:1042700020202066206E08B14FF0010900BF012008
:1042800084F85D0000BF002084F85C0000BF484651
:104290004AE72DE9F84F0446884616461D464FF07A
:1042A000000A00BF94F85C00012802D10220BDE89A
:1042B000F88F012084F85C0000BFFEF78FFB0746F3
:1042C000B14694F85D00012802D04FF0020AC5E023
:1042D000B8F1000F00D016B94FF0010ABEE003207C
:1042E00084F85D0000202066C4F83880A687E68741
:1042F0002064A4F84400A4F846002065E064A068A7
:10430000B0F5004F05D12068006840F48040216876
:1043100008602068006800F04000402805D0206850
:10432000006840F0400021680860E068B0F5E06F88
:104330002FD9606810B1B9F1010F09D1A06B0088C5
:104340002168C860A06B801CA063E08F401EE087DE
:104350001BE02068806800F0020002280AD1A06BF0
:1043600000882168C860A06B801CA063E08F401E9D
:10437000E0870AE0FEF732FBC01BA84201D3681CAD
:1043800000B915B94FF0030A68E0E08F0028E0D1CA
:104390004AE0606810B1B9F1010F17D1E08F012830
:1043A0000AD9A06B00882168C860A06B801CA0633C
:1043B000E08F801EE08709E0A06B00782168087319
:1043C000A06B401CA063E08F401EE08729E02068BE
:1043D000806800F00200022818D1E08F01280AD975
:1043E000A06B00882168C860A06B801CA063E08F70
:1043F000801EE08715E0A06B007821680873A06B31
:10440000401CA063E08F401EE0870AE0FEF7E6FA5A
:10441000C01BA84201D3681C00B915B94FF0030AAC
:104420001CE0E08F0028D2D13A462946204601F010
:1044300018FF08B120202066A06850B900BF0020F6
:1044400000902068C068009020688068009000BFDD
:1044500000BF206E08B14FF0010A00BF012084F8B0
:104460005D0000BF002084F85C0000BF50461EE7DE
:104470002DE9FF5F0446894692461D460E9E0120A7
:1044800001900020009000BF94F85C00012803D147
:10449000022004B0BDE8F09F012084F85C0000BF5A
:1044A000FEF79CFA074694F85D000290606803905E
:1044B000A846AB46029801280BD00398B0F5827F3E
:1044C00004D1A06810B90298042802D002200090FC
:1044D00022E1B9F1000F03D0BAF1000F00D015B9F5
:1044E0000120009018E194F85D00042802D0052016
:1044F00084F85D0000202066C4F840A0A4F846506F
:10450000A4F84450C4F83890E587A587E064206596
:10451000E068B0F5E06F02D8BBF1010F06D9206862
:10452000406820F480502168486005E020684068B9
:1045300040F48050216848602068006800F0400026
:10454000402805D02068006840F0400021680860DD
:10455000E068B0F5E06F4ED9606810B1B8F1010FB6
:1045600009D1A06B00882168C860A06B801CA06383
:10457000E08F401EE08736E02068806800F002008F
:10458000022810D1E08F70B1019801280BD1A06BE7
:1045900000882168C860A06B801CA063E08F401E6B
:1045A000E087002001902068806800F0010080B161
:1045B000B4F8460068B12068C068216C0880206C9F
:1045C000801C2064B4F84600401EA4F84600012078
:1045D0000190FEF703FAC01BB04204D3701C10B167
:1045E0000320009098E0E08F0028C5D1B4F8460081
:1045F0000028C1D185E0606810B1B8F1010F17D172
:10460000E08F01280AD9A06B00882168C860A06BE0
:10461000801CA063E08F801EE08709E0A06B00781B
:1046200021680873A06B401CA063E08F401EE087E8
:1046300060E02068806800F0020002281ED1E08F50
:10464000E0B10198012819D1E08F01280AD9A06BA7
:1046500000882168C860A06B801CA063E08F801E6A
:10466000E08709E0A06B007821680873A06B401C0C
:10467000A063E08F401EE0870020019020688068E2
:1046800000F0010058B3B4F8460040B3B4F8460057
:10469000012816D92068C068216C0880206C801C15
:1046A0002064B4F84600801EA4F84600B4F8460022
:1046B000012812D82068406840F480502168486082
:1046C0000BE02068007B216C0870206C401C20648B
:1046D000B4F84600401EA4F8460001200190FEF701
:1046E0007DF9C01BB04201D3701C00B916B903207C
:1046F000009011E0E08F00289BD1B4F8460000281C
:1047000097D13A463146204601F0ABFD18B1012061
:1047100000902020206600BF012084F85D0000BFCB
:10472000002084F85C0000BF0098B2E670B5044633
:104730002546681EB0F1807F01D301200FE0681E7E
:104740004FF0E02148610F214FF0FF3002F08CFB69
:1047500000204FF0E021886107200861002070BD33
:10476000704770477047000030B502460B4600BFE7
:1047700092F83C00012801D1022030BD012082F8CE
:104780003C0000BF022082F83D00106841681068BC
:104790008468114D1068A84203D0104D1068A842DB
:1047A00003D121F470015868014321F070011868A9
:1047B000014324F080049868044310684160106845
:1047C0008460012082F83D0000BF002082F83C0098
:1047D00000BF00BFD1E7000000000140000401401D
:1047E00010B504460CB9012010BD94F83D0028B95D
:1047F000002084F83C00204600F00CF8022084F8E9
:104800003D00211D206801F0E9FE012084F83D00F3
:104810000020E9E708B5094A016891420DD100BFBF
:104820000749096841F01001054A116011460968FD
:1048300001F01001009100BF00BF08BD0010004052
:104840004038024001460868C06840F001000B682B
:10485000D86008688068084B00EA0302062A08D07E
:10486000B2F5803F05D00868006840F001000B6891
:1048700018600020704700000700010070B5054671
:104880000C21284600F010F981B20F480468601C22
:104890000D4A10600D4820F81410104600680228D8
:1048A00011D30A4800884FF6FF71081A0749498852
:1048B0000844401C80B20649086001200549086090
:1048C00000201146086070BDE4020020F0020020C4
:1048D000E8020020EC02002010B5044620680069C0
:1048E000C0F34000D8B12068C068C0F34000B0B148
:1048F0006FF002002168086101202077206880693C
:1049000000F0030018B12046FFF7B8FF05E020468D
:1049100000F0BEF8204600F0BCF8002020772068A8
:104920000069C0F38000D8B12068C068C0F380007F
:10493000B0B16FF004002168086102202077206880
:10494000806900F4407018B12046FFF797FF05E03A
:10495000204600F09DF8204600F09BF800202077CC
:1049600020680069C0F3C000D8B12068C068C0F3F7
:10497000C000B0B16FF00800216808610420207702
:104980002068C06900F0030018B12046FFF776FFE9
:1049900005E0204600F07CF8204600F07AF8002080
:1049A000207720680069C0F30010D8B12068C06883
:1049B000C0F30010B0B16FF010002168086108204A
:1049C00020772068C06900F4407018B12046FFF7D6
:1049D00055FF05E0204600F05BF8204600F059F84E
:1049E000002020772068006900F0010058B120689D
:1049F000C06800F0010030B16FF00100216808616B
:104A0000204600F047F820680069C0F3C01058B194
:104A10002068C068C0F3C01030B16FF0800021681A
:104A200008612046FFF79DFE20680069C0F3002062
:104A300058B12068C068C0F3C01030B16FF4807006
:104A4000216808612046FFF78BFE20680069C0F3EB
:104A5000801058B12068C068C0F3801030B16FF08A
:104A6000400021680861204600F037F8206800699E
:104A7000C0F3401058B12068C068C0F3401030B196
:104A80006FF02000216808612046FFF76BFE10BD23
:104A90007047704710B504460248844201D10AF0BD
:104AA0005DFF10BD900600200246002031B10429B0
:104AB00007D0082908D00C290CD108E01368586BDE
:104AC00009E01368986B06E01368D86B03E013687D
:104AD000186C00E000BF00BF7047704710B5044677
:104AE0000CB9012010BD242060672068006820F008
:104AF0000100216808600020216808602168486082
:104B000021688860204600F011F90020E0676067A6
:104B1000A06700BF84F8700000BF00BFE2E738B5AF
:104B20000446002000902068C069C0F3C00038B17E
:104B300008202168086201226946204600F088FBAF
:104B400038BD00002DE9F04704462068C56920689B
:104B500006682068876805F00F08B8F1000F0CD1CF
:104B600005F0200048B106F0200030B1206E10B1F1
:104B70002046216E8847BDE8F087B8F1000F71D05C
:104B800007F0010018B906F49070002879D005F0FC
:104B9000010048B106F4807030B10120216808623C
:104BA000E06F40F00100E06705F0020048B107F057
:104BB000010030B1022021680862E06F40F004007B
:104BC000E06705F0040048B107F0010030B10420AF
:104BD00021680862E06F40F00200E06705F008001D
:104BE00060B106F0200010B907F0010030B10820D4
:104BF00021680862E06F40F00800E067E06F80B372
:104C000005F0200038B106F0200020B1206E10B170
:104C10002046216E8847D4F87C902068806800F098
:104C20004000402802D009F0080020B3204601F0DF
:104C30000DFE2068806800F04000402817D12068F1
:104C4000806820F0400021688860E06E58B1194803
:104C5000E16E0865E06EFDF723FA10B1E06E016DBC
:104C600088470DE00DE02046FFF759FF08E0204699
:104C7000FFF755FF04E02046FFF751FF0020E067F3
:104C800079E705F0800040B106F0800028B1606E41
:104C900010B12046616E88476DE705F0400030B1E5
:104CA00006F0400018B1204601F0E1FD63E700BFC7
:104CB00061E700003568009010B504460CB901208A
:104CC00010BDA06900B100E000BF606F28B90020EE
:104CD00084F87000204600F0E7F824206067206820
:104CE000006820F0010021680860204601F03AFECB
:104CF000012800D1E4E7606A10B1204601F0FAFC17
:104D00002068406820F490402168486020688068EE
:104D100020F02A00216888602068006840F00100C7
:104D200021680860204601F061FDC9E710B504461E
:104D30005049206888420CD14F48006820F4002078
:104D40004D49086020680AF0A9FB3420FDF744FFB4
:104D50008EE04A492068884211D14748006820F413
:104D600080104549086089144548FDF7CBFB0421B4
:104D70004448FDF7C7FB3520FDF72EFF78E0424998
:104D8000206888420ED13C48006820F080403A49B3
:104D900008604FF4F0613D48FDF7B4FB5220FDF789
:104DA0001BFF65E03A492068884218D13248006804
:104DB00020F00040304908604FF440413148FDF791
:104DC000A1FB03213148FDF79DFBE06EFDF77CF967
:104DD000A06EFDF779F95320FDF7FEFE48E02D495E
:104DE000206888420FD12448001D006820F0100080
:104DF0002149091D086049152748FDF783FB252037
:104E0000FDF7EAFE34E02549206888420CD11A48B3
:104E1000006820F400301849086020680AF03EFB62
:104E20002620FDF7D9FE23E01D49206888420CD1D9
:104E30001148006820F480200F49086020680AF0BB
:104E40002DFB2720FDF7C8FE12E016492068884296
:104E50000ED10948001D006820F020000649091DF8
:104E6000086040210648FDF74DFB4720FDF7B4FEE2
:104E700010BD0000004C004040380240005000408F
:104E800000080240000C0240007800400010024080
:104E9000007C00400010014000000240004400403F
:104EA000004800400014014010B586B004461421AB
:104EB00001A8FBF7D4FAD9492068884221D100BF64
:104EC000D748006840F40020D549086008460068CB
:104ED00000F40020009000BF00BF00BFD048103891
:104EE000006840F00100CE491039086008460068AB
:104EF00000F00100009000BF00BF20680AF0E0FA57
:104F000089E1C8492068884247D100BFC448006889
:104F100040F48010C24908600846006800F4801020
:104F2000009000BF00BF00BFBD481038006840F0CF
:104F30000400BB49103908600846006800F004000E
:104F4000009000BF00BF00BF0846006840F00800A6
:104F500008600846006800F00800009000BF00BF2D
:104F600088140190022002900020039002200490F7
:104F70000820059001A9AC48FDF71AFC0420019017
:104F80000220029000200390022004900820059047
:104F900001A9A648FDF70CFC3DE1A549206888421F
:104FA0003CD100BF9E48006840F080409C490860AA
:104FB0000846006800F08040009000BF00BF00BFBE
:104FC00097481038006840F0100095491039086083
:104FD0000846006800F01000009000BF00BF4FF4CA
:104FE000C0700190022002900020039002200490E3
:104FF0000820059001A98F48FDF7DAFB4FF4C06047
:1050000001900220029000200390012004900820CB
:10501000059001A98748FDF7CBFBFCE08649206895
:10502000884247D100BF7E48006840F000407C497C
:1050300008600846006800F00040009000BF00BF14
:1050400000BF77481038006840F0080074491039F4
:1050500008600846006800F00800009000BF00BF2C
:1050600000BF0846006840F010000860084600686D
:1050700000F01000009000BF00BF4FF440400190CE
:10508000022002900120039004900820059001A9BD
:105090006648FDF78DFB032001900220029001205D
:1050A0000390022004900820059001A96148FDF7B3
:1050B0007FFBB0E06149206888422ED100BF58488C
:1050C000001D006840F010005549091D08600846A1
:1050D000006800F01000009000BF00BF00BF504803
:1050E0001038006840F001004D491039086008464A
:1050F000006800F00100009000BF00BF481501905B
:1051000012200290012003900220049007200590B5
:1051100001A94B48FDF74CFB7DE04A4920688842D5
:1051200021D100BF3E48006840F400303C4908608F
:105130000846006800F40030009000BF00BF00BFC8
:1051400037481038006840F00100354910390860D0
:105150000846006800F00100009000BF00BF206812
:105160000AF0AEF957E038492068884221D100BFE3
:105170002B48006840F480202949086008460068F0
:1051800000F48020009000BF00BF00BF244810380A
:10519000006840F0020022491039086008460068A3
:1051A00000F00200009000BF00BF20680AF088F9FC
:1051B00031E02649206888422DD100BF1848001DE3
:1051C000006840F020001649091D08600846006884
:1051D00000F02000009000BF00BF00BF1048103852
:1051E000006840F004000E49103908600846006865
:1051F00000F00400009000BF00BF4020019012208A
:10520000029000200390022004900820059001A93C
:105210000548FDF7CDFA06B010BD0000004C004077
:10522000403802400050004000080240000C02409C
:105230000078004000100240007C00400010014057
:1052400000000240004400400048004000140140BB
:1052500010B50346986F202865D101B10AB9012025
:1052600010BD00BF93F87000012801D10220F7E7BC
:10527000012083F8700000BF5965A3F85820A3F8F7
:105280005A200020186600BF9868B0F5805F0AD1E8
:10529000186920B940F2FF10A3F85C0020E0FF205D
:1052A000A3F85C001CE0986848B9186918B9FF2099
:1052B000A3F85C0014E07F20A3F85C0010E098687D
:1052C000B0F1805F09D1186918B97F20A3F85C009C
:1052D00006E03F20A3F85C0002E00020A3F85C0099
:1052E00000BF0020D867222098671868806840F0C7
:1052F00001001C68A0609868B0F5805F04D118694F
:1053000010B90A48186601E00948186600BF002075
:1053100083F8700000BF1868006840F490701C6843
:10532000206000209CE702209AE700008F68009030
:10533000FB68009010B50446204609F09FFA194911
:10534000206888421ED11848017818480268006811
:10535000401C164B186016488154134800780D28DD
:105360000AD1002019460860114912A001F038FD49
:1053700080210F48FBF773F801220B492046FFF705
:1053800067FF0DE00E492068884209D10D48017879
:105390000D4809F012F901220A490C48FFF758FF9D
:1053A00010BD000000500040980100209401002032
:1053B0003C37032055415254353A2025730A0000EA
:1053C000007C004092010020BC40032050080020D7
:1053D0002DE9F84F04460E4617469946606F20287F
:1053E0005CD106B117B90120BDE8F88F00BF94F871
:1053F0007000012801D10220F6E7012084F8700036
:1054000000BF0020E06721206067FDF7E7FA8246D1
:10541000A4F85070A4F85270A068B0F5805F04D171
:10542000206910B90025B04602E035464FF000086B
:105430001DE05346002280212046CDF8009001F067
:1054400063FC08B10320CFE745B9B8F80000C0F30A
:1054500008002168886208F1020803E028782168C2
:1054600088626D1CB4F85200401EA4F85200B4F8D3
:1054700052000028DDD15346002240212046CDF8BD
:10548000009001F041FC08B10320ADE720206067E7
:1054900000BF002084F8700000BFA5E70220A3E74A
:1054A0007047704710B5044620684068C0F340203C
:1054B00058B12068806800F0010030B16FF0010041
:1054C000216888602046FFF7ECFF10BD03480068A4
:1054D00000F0010000B100BE00BFFEE7F0ED00E00B
:1054E00070B505460E460024324629460E20FBF7CD
:1054F000CDFF0D240FE0284600F06BFA284600F09F
:1055000081FA324629462046FBF7C0FF284600F0C4
:1055100010F8601EC4B2002CEDDC284600F059FAE9
:10552000284600F06FFA324629460020FBF7AEFF0E
:1055300070BD31B588B00020079044E2DDE9071066
:1055400010F821000690DDE9071000EB810040789B
:105550000590DDE9071000EB810080780490DDE91B
:10556000071000EB8100C078039006980CF09AFCBD
:10557000044606980CF096FC02900CF093FC444014
:1055800006980CF08FFC01900CF08CFC02900CF053
:1055900089FC444006980CF085FC00900CF082FCDD
:1055A00001900CF07FFC02900CF07CFC05980CF054
:1055B00079FC0546059845400CF074FC02900CF00F
:1055C00071FC05980CF06EFC01900CF06BFC0290E5
:1055D0000CF068FC454005980CF064FC00900CF061
:1055E00061FC01900CF05EFC02900CF05BFC6C40E6
:1055F00004980CF057FC049805460CF053FC0290FC
:105600000CF050FC454004980CF04CFC01900CF060
:1056100049FC02900CF046FC454004980CF042FC1A
:1056200000900CF03FFC01900CF03CFC02900CF060
:1056300039FC6C4003980CF035FC039805460CF0DF
:1056400031FC02900CF02EFC03980CF02BFC019026
:105650000CF028FC02900CF025FC454003980CF05F
:1056600021FC00900CF01EFC01900CF01BFC029041
:105670000CF018FC6C40DDE9071000F8214006989A
:105680000CF010FC069804460CF00CFC02900CF098
:1056900009FC06980CF006FC01900CF003FC02904B
:1056A0000CF000FC444006980CF0FCFB00900CF061
:1056B000F9FB01900CF0F6FB02900CF0F3FB05985F
:1056C0000CF0F0FB054605980CF0ECFB02900CF09A
:1056D000E9FB454005980CF0E5FB01900CF0E2FB7E
:1056E00002900CF0DFFB454005980CF0DBFB0090CE
:1056F0000CF0D8FB01900CF0D5FB02900CF0D2FB23
:105700006C4004980CF0CEFB0546049845400CF024
:10571000C9FB02900CF0C6FB04980CF0C3FB01908F
:105720000CF0C0FB02900CF0BDFB454004980CF05F
:10573000B9FB00900CF0B6FB01900CF0B3FB0290AB
:105740000CF0B0FB6C4003980CF0ACFB03980546E2
:105750000CF0A8FB02900CF0A5FB454003980CF060
:10576000A1FB01900CF09EFB02900CF09BFB4540CE
:1057700003980CF097FB00900CF094FB01900CF058
:1057800091FB02900CF08EFB6C40DDE9071000EB02
:105790008100447006980CF085FB069804460CF0D6
:1057A00081FB02900CF07EFB444006980CF07AFBE3
:1057B00001900CF077FB02900CF074FB44400698CB
:1057C0000CF070FB00900CF06DFB01900CF06AFB8C
:1057D00002900CF067FB05980CF064FB05980546F9
:1057E0000CF060FB02900CF05DFB05980CF05AFB8E
:1057F00001900CF057FB02900CF054FB45400598CB
:105800000CF050FB00900CF04DFB01900CF04AFBAB
:1058100002900CF047FB6C4004980CF043FB0546EB
:1058200004980CF03FFB02900CF03CFB45400498C0
:105830000CF038FB01900CF035FB02900CF032FBC1
:10584000454004980CF02EFB00900CF02BFB0190CF
:105850000CF028FB02900CF025FB6C4003980CF038
:1058600021FB0546039845400CF01CFB02900CF010
:1058700019FB03980CF016FB01900CF013FB02903F
:105880000CF010FB454003980CF00CFB00900CF062
:1058900009FB01900CF006FB02900CF003FB6C403E
:1058A000DDE9071000EB8100847006980CF0FAFA2D
:1058B0000446069844400CF0F5FA02900CF0F2FA17
:1058C00006980CF0EFFA01900CF0ECFA02900CF054
:1058D000E9FA444006980CF0E5FA00900CF0E2FA80
:1058E00001900CF0DFFA02900CF0DCFA05980CF055
:1058F000D9FA059805460CF0D5FA02900CF0D2FAC8
:10590000454005980CF0CEFA01900CF0CBFA0290CD
:105910000CF0C8FA454005980CF0C4FA00900CF061
:10592000C1FA01900CF0BEFA02900CF0BBFA6C4088
:1059300004980CF0B7FA049805460CF0B3FA0290FC
:105940000CF0B0FA04980CF0ADFA01900CF0AAFA41
:1059500002900CF0A7FA454004980CF0A3FA0090CE
:105960000CF0A0FA01900CF09DFA02900CF09AFA5B
:105970006C4003980CF096FA054603980CF092FAE6
:1059800002900CF08FFA454003980CF08BFA0190CE
:105990000CF088FA02900CF085FA454003980CF060
:1059A00081FA00900CF07EFA01900CF07BFA0290E4
:1059B0000CF078FA6C40DDE9071000EB8100C47050
:1059C0000798401C079007980428FFF6B7AD09B068
:1059D00030BD417B437A43734379437243784371CB
:1059E00041708178827A827081728179837B837140
:1059F0008173C178C279C270C37AC371C37BC37229
:105A0000C173704710B5024600200FE0002109E085
:105A100002EB81031B5C074CE35C02EB8104235423
:105A20004B1CD9B20429F3DB431CD8B20428EDDBAC
:105A300010BD00008821019078B502460C46002078
:105A400020E0002505EB8005655D002606EB80065D
:105A50009555012505EB8005655D012606EB800661
:105A60009555022505EB8005655D022606EB80064F
:105A70009555032505EB8005655D032606EB80063D
:105A80009555401C0828DCD3082079E0451EA90064
:105A9000555C8DF800504D1C555D8DF801508D1CE6
:105AA000555D8DF80250CD1C555D8DF8035000F00A
:105AB00007056DBB9DF800509DF801608DF80060F2
:105AC0009DF802608DF801609DF803608DF802601A
:105AD0008DF803509DF800502B4E755D8DF80050E9
